:020000040000FA
:06000000B1EF15F0120043
:06100000B1EF15F0120033
:0610080034EF12F01200AB
:021018001200C4
:06102A0001009C2B0000F8
:081030006A0000000500000049
:08103800D9CFE6FFE1CFD9FF9B
:10104000D08EF28EFD0EDBCF25F0FE0EDBCF26F02C
:10105000200E251802E19D0E261847E0400E2518A7
:1010600002E19D0E26183FE0100E251802E1F00E59
:10107000261836E0080E251802E1F00E26182DE09D
:10108000100E251802E1F20E261824E0020E251893
:1010900002E1A00E26181BE0020E251802E19D0EAB
:1010A000261812E0010E251802E19D0E261809E00F
:1010B000200E25181CE1F20E261819E1F28AD58EB1
:1010C00016D09D80CD8013D09D82CA8410D0A0827E
:1010D000B1800DD0F288F19C0AD0F086F19A07D049
:1010E000F088F19804D09D8C02D09D8A9F8AE552A9
:1010F000E7CFD9FF12006CC092FF12006CC093FFC3
:1011000012006CC094FF12009268120093681200E3
:1011100094681200D180120004001200D9CFE6FFBB
:10112000E1CFD9FFFD0EDBCF25F0FE0EDBCF26F0A1
:10113000820E251802E10F0E261801E1C3D0170E0A
:10114000251802E17C0E261801E1B9D0160E2518EB
:1011500002E17C0E261801E1AFD0120E251802E143
:101160007C0E261801E1A5D0110E251802E17C0E97
:10117000261801E19BD0100E251802E17C0E2618DE
:1011800001E191D0810E251802E10F0E261801E130
:1011900087D00F0E251802E17C0E261801E17DD0C4
:1011A0000E0E251802E17C0E261874E00D0E25188F
:1011B00002E17C0E26186BE00C0E251802E17C0E75
:1011C000261862E00B0E251802E17C0E261859E065
:1011D0000A0E251802E17C0E261850E0090E25188B
:1011E00002E17C0E261847E0080E251802E17C0E6D
:1011F00026183EE0800E251802E10F0E261835E075
:10120000050E251802E17C0E26182CE0040E251888
:1012100002E17C0E261823E0030E251802E17C0E65
:1012200026181AE0020E251802E17C0E261811E09D
:10123000010E251802E17C0E261808E0255044E135
:101240007C0E261841E1929080803ED0929280825E
:101250003BD09294808438D09296808635D09298F4
:10126000808832D0929A808A2FD0926A89682CD056
:101270009390818029D09392818226D09394818407
:1012800023D09396818620D0939881881DD0939AFD
:10129000818A1AD0939C818C17D0939E818E14D012
:1012A000936A8A6811D0949082800ED09492828240
:1012B0000BD09494828408D0949C828C05D0949E08
:1012C000828E02D0946A8B68E552E7CFD9FF120074
:1012D000D9CFE6FFE1CFD9FFFD0EDBCF25F0FE0E23
:1012E000DBCF26F0820E251802E10F0E261801E151
:1012F000C3D0170E251802E17C0E261801E1B9D0E3
:10130000160E251802E17C0E261801E1AFD0120E50
:10131000251802E17C0E261801E1A5D0110E251832
:1013200002E17C0E261801E19BD0100E251802E187
:101330007C0E261801E191D0810E251802E10F0ED6
:10134000261801E187D00F0E251802E17C0E261821
:1013500001E17DD00E0E251802E17C0E261874E006
:101360000D0E251802E17C0E26186BE00C0E2518D8
:1013700002E17C0E261862E00B0E251802E17C0EBD
:10138000261859E00A0E251802E17C0E261850E0B6
:10139000090E251802E17C0E261847E0080E2518D4
:1013A00002E17C0E26183EE0800E251802E10F0EA9
:1013B000261835E0050E251802E17C0E26182CE0D3
:1013C000040E251802E17C0E261823E0030E2518D2
:1013D00002E17C0E26181AE0020E251802E17C0EAE
:1013E000261811E0010E251802E17C0E261808E0EF
:1013F000255044E17C0E261841E1929080903ED029
:10140000929280923BD09294809438D0929680961B
:1014100035D09298809832D0929A809A2FD0926A42
:10142000896A2CD09390819029D09392819226D072
:101430009394819423D09396819620D09398819809
:101440001DD0939A819A1AD0939C819C17D0939E19
:10145000819E14D0936A8A6A11D0949082900ED0A3
:10146000949282920BD09494829408D0949C829C03
:1014700005D0949E829E02D0946A8B6AE552E7CF93
:10148000D9FF1200D9CFE6FFE1CFD9FFFD0EDBCFA8
:1014900025F0FE0EDBCF26F01F0E251802E17C0E94
:1014A000261801E1AFD0170E251802E17C0E261890
:1014B00001E1A5D0160E251802E17C0E261801E1E7
:1014C0009BD0120E251802E17C0E261801E191D066
:1014D000110E251802E17C0E261801E187D0100EAE
:1014E000251802E17C0E261801E17DD00F0E25188B
:1014F00002E17C0E261874E00E0E251802E17C0E27
:1015000026186BE00D0E251802E17C0E261862E00D
:101510000C0E251802E17C0E261859E00B0E25183A
:1015200002E17C0E261850E00A0E251802E17C0E1E
:10153000261847E0090E251802E17C0E26183EE029
:10154000080E251802E17C0E261835E0050E251838
:1015500002E17C0E26182CE0040E251802E17C0E18
:10156000261823E0030E251802E17C0E26181AE047
:10157000020E251802E17C0E261811E0010E251836
:1015800002E17C0E261808E025503EE17C0E26186C
:101590003BE19290807038D09292807235D09294D4
:1015A000807432D0929680762FD0929880782CD00A
:1015B000929A807A29D09390817026D093928172EA
:1015C00023D09394817420D0939681761DD09398E4
:1015D00081781AD0939A817A17D0939C817C14D009
:1015E000939E817E11D0949082700ED094928272DC
:1015F0000BD09494827408D0949C827C05D0949EE5
:10160000827E02D0959E837EE552E7CFD9FF1200FD
:10161000D9CFE6FFE1CFD9FFFD0EDBCF25F0FE0EDF
:10162000DBCF26F0170E251802E17C0E261801E10B
:1016300019D1160E251802E17C0E261801E109D1F8
:10164000120E251802E17C0E261801E1F9D0110EC8
:10165000251802E17C0E261801E1E9D0100E2518AC
:1016600002E17C0E261801E1D9D00F0E251802E107
:101670007C0E261801E1C9D00E0E251802E17C0E61
:10168000261801E1B9D00D0E251802E17C0E2618AE
:1016900001E1A9D00C0E251802E17C0E261801E10B
:1016A00099D00B0E251802E17C0E261801E189D095
:1016B0000A0E251802E17C0E261801E179D0090EE8
:1016C000251802E17C0E26186AE0080E251802E1B2
:1016D0007C0E26185BE0050E251802E17C0E26180C
:1016E0004CE0040E251802E17C0E26183DE0030EA6
:1016F000251802E17C0E26182EE0020E251802E1C4
:101700007C0E26181FE0010E251802E17C0E26181B
:1017100010E0255001E0ADD07C0E261801E0A9D0E4
:101720009290FB0EDB50E8B08080E8B0A2D08090B1
:10173000A0D09292FB0EDB50E8B08082E8B099D046
:10174000809297D09294FB0EDB50E8B08084E8B092
:1017500090D080948ED09296FB0EDB50E8B08086BD
:10176000E8B087D0809685D09298FB0EDB50E8B029
:101770008088E8B07ED080987CD0929AFB0EDB50B7
:10178000E8B0808AE8B075D0809A73D09390FB0E51
:10179000DB50E8B08180E8B06CD081906AD0939241
:1017A000FB0EDB50E8B08182E8B063D0819261D05B
:1017B0009394FB0EDB50E8B08184E8B05AD081945A
:1017C00058D09396FB0EDB50E8B08186E8B051D03C
:1017D00081964FD09398FB0EDB50E8B08188E8B03B
:1017E00048D0819846D0939AFB0EDB50E8B0818AAE
:1017F000E8B03FD0819A3DD0939CFB0EDB50E8B01F
:10180000818CE8B036D0819C34D0939EFB0EDB50A7
:10181000E8B0818EE8B02DD0819E2BD09490FB0E45
:10182000DB50E8B08280E8B024D0829022D094923D
:10183000FB0EDB50E8B08282E8B01BD0829219D058
:101840009494FB0EDB50E8B08284E8B012D082940E
:1018500010D0949CFB0EDB50E8B0828CE8B009D02D
:10186000829C07D0949EFB0EDB50E8B0828EE8A0ED
:10187000829EE552E7CFD9FF1200D9CFE6FFE1CF34
:10188000D9FF020EE126DE6ADD6ADECF31F0DDCF60
:1018900032F00C0E256E266AFD0EDBCF2AF0FE0E0E
:1018A000DBCF2BF0EAEC14F023C033F024C034F08B
:1018B0003350315C3450325806E20000DF2A010E0A
:1018C00001E3DB2AE2D7020EE15C02E2E16AE552C3
:1018D000E16EE552E7CFD9FF1200D9CFE6FFE1CFA5
:1018E000D9FF020EE126FC0E00016C25010FA96E46
:1018F0006C51A9240B0BA66EA850FEE1DE6ADD6ACE
:10190000DECF31F0DDCF32F00C0E256E266AFD0EF3
:10191000DBCF2AF0FE0EDBCF2BF0EAEC14F023C075
:1019200033F024C034F02350315C245032580AE2A2
:10193000010EE66E91EC15F0E552DF2A010EE0E3B0
:10194000DB2ADED7020EE15C02E2E16AE552E16EDB
:10195000E552E7CFD9FF1200D9CFE6FFE1CFD9FF9B
:10196000FE0EDB5000016C25C16E070E6C25C06EAB
:10197000E552E7CFD9FF1200D9CFE6FFE1CFD9FF7B
:10198000FE0EDB500C0A24E0070A20E0010A1CE0EE
:10199000030A18E0010A14E00C0A10E0070A0CE040
:1019A000010A08E0030A04E0010A14E1010E11D063
:1019B000050E0FD0090E0DD00D0E0BD0110E09D053
:1019C000210E07D0250E05D0290E03D02D0E01D0F3
:1019D000310EC26E0A0EE66EE66A7FDFE552E55210
:1019E000C09EC282C2B2FED7C450326AF36E32C009
:1019F000F4FFE552E7CFD9FF1200D9CFE6FFE1CFE0
:101A0000D9FFFE0EDB500C0A24E0070A20E0010A91
:101A10001CE0030A18E0010A14E00C0A10E0070AAF
:101A20000CE0010A08E0030A04E0010A14E1010ED7
:101A300011D0050E0FD0090E0DD00D0E0BD0110ECA
:101A400009D0210E07D0250E05D0290E03D02D0E6A
:101A500001D0310EC26E0A0EE66EE66A3EDFE55236
:101A6000E552C08EC282C2B2FED7C3CFF3FFC4CF4D
:101A7000F4FFE552E7CFD9FF1200D9CFE6FFE1CF5F
:101A8000D9FFFE0EDB50030A67E0020A42E0010ABA
:101A900001E084D0FC0EDBCF25F0FD0EDBCF26F07D
:101AA000020E251801E1265031E0040E251801E14F
:101AB00026502AE0080E251801E1265023E0100EDA
:101AC000251801E126501CE0200E251801E12650C2
:101AD00015E0400E251801E126500EE0800E251875
:101AE00001E1265007E0255059E1010E261856E184
:101AF000870E0DD0860E0BD0850E09D0840E07D030
:101B0000830E05D0820E03D0810E01D0800ED56EDB
:101B100045D0FC0EDBCF25F0FD0EDBCF26F0010E0D
:101B2000251801E1265015E0020E251801E1265086
:101B30000EE0040E251801E1265007E0080E2518D6
:101B40002DE126502BE1B10E05D0A10E03D0910E50
:101B500001D0810ECD6E22D0FC0EDBCF25F0FD0E24
:101B6000DBCF26F0010E251801E1265015E0020E0C
:101B7000251801E126500EE0040E251801E126503B
:101B800007E0080E25180AE1265008E1B10E05D03D
:101B9000A10E03D0910E01D0810EB16EE552E7CFB8
:101BA000D9FF1200D9CFE6FFE1CFD9FF060EE1261B
:101BB000346A356A010E366EFC0EDBCF37F0FD0E4F
:101BC000DBCF38F0396A3750345C316E38503558D5
:101BD000326E39503658336E31C0DEFF32C0DDFF11
:101BE000316A010E326E31C02AF02B6EDECF25F045
:101BF000DDCF26F07BEC15F0020E25C0DBFF030ED7
:101C000026C0DBFFDECF31F0DDCF32F0326A040ECA
:101C100031C0DBFF050E32C0DBFFFE0EDB50030AD6
:101C200012E0020A09E0010A14E1020EDB50D76E4D
:101C3000040EDB50D66E0DD0020EDB50CF6E040EBC
:101C4000DB50CE6E06D0020EDB50B36E040EDB50BE
:101C5000B26E060EE15C02E2E16AE552E16EE55227
:101C6000E7CFD9FF1200D9CFE6FFE1CFD9FF020EAF
:101C7000E126D66AC10ED56EDE6ADD6ADECF31F0AE
:101C8000DDCF32F00C0E256E266AFD0EDBCF2AF07A
:101C9000FE0EDBCF2BF0EAEC14F023C033F024C0AF
:101CA00034F02350315C245032580BE2060ED62417
:101CB000D66EF294F2A4FED7DF2A010EDFE3DB2A10
:101CC000DDD7020EE15C02E2E16AE552E16EE55227
:101CD000E7CFD9FF1200D9CFE6FFE1CFD9FFA69E0B
:101CE000A69CA684FE0EDB50A96EFD0EDB50A86EEE
:101CF000550EA76EAA0EA76EA682A6B2FED7E55213
:101D0000E7CFD9FF1200D9CFE6FFE1CFD9FFFE0E12
:101D1000DB50A96EA694A69EA69CA680A850E5526C
:101D2000E7CFD9FF1200FD0EA96E0B0EA914A66E07
:101D3000A850FEE17E0E336E2B6EA9CF26F0BFECCD
:101D400015F02238F00B316E326A6AC025F06BC094
:101D500026F02A6E32C02BF07BEC15F025C06DF01A
:101D600025C0E6FFD0DFE55200016C6F1200D9CF2D
:101D7000E6FFE1CFD9FF040EE126948E949C240E59
:101D8000AC6E900EAB6E080EB86E6CC035F0366A55
:101D9000376A386A396A1B0E3A6EB70E3B6E3C6A78
:101DA00039C023F03AC024F0256E3CC026F0FB0E6B
:101DB000DBCF28F0FC0EDBCF29F0FD0EDBCF2AF0C5
:101DC000FE0EDBCF2BF057EC15F035502324316E8F
:101DD00036502420326E37502520336E385026205E
:101DE000346E3106000E325A335A345A31C0DFFF96
:101DF000010E32C0DBFF020E33C0DBFF030E34C026
:101E0000DBFFD9CFE9FFDACFEAFFEECF31F0EECF3B
:101E100032F0EECF33F0EFCF34F0080ED8903432FA
:101E2000333232323132E806F9E13150B06E000E11
:101E3000DB50AF6E040EE15C02E2E16AE552E16E56
:101E4000E552E7CFD9FF1200D9CFE6FFE1CFD9FFA6
:101E5000ACA2FED7FE0EDB5000016C25AD6EE55244
:101E6000E7CFD9FF1200D9CFE6FFE1CFD9FFACA26F
:101E7000FED7FE0EDB5000016C25AD6EE552E7CFBC
:101E8000D9FF1200D9CFE6FFE1CFD9FFACA2FED730
:101E9000B850080B01E0010E316EFE0EDB5031C070
:101EA000E7FFE75204E0E8427F0BE706FCE10001B0
:101EB0006C25AD6EE552E7CFD9FF1200D9CFE6FF12
:101EC000E1CFD9FFE6526FC0F6FF70C0F7FF080000
:101ED000F55010E000016FC0F6FF70C0F7FF6F2BE8
:101EE000000E70230800F550DF6EDFCFE6FFBBDF8A
:101EF000E552E9D7E552E552E7CFD9FF1200D9CF35
:101F0000E6FFE1CFD9FFE65271C0F6FF72C0F7FFDE
:101F10000800F55010E0000171C0F6FF72C0F7FF35
:101F2000712B000E72230800F550DF6EDFCFE6FF45
:101F3000A9DFE552E9D7E552E552E7CFD9FF120014
:101F4000D9CFE6FFE1CFD9FF00016E6B6E51E76E8E
:101F5000FD0EDBCFE9FFFE0EDBCFEAFFE750E926FF
:101F6000000EEA22EF5013E06E51E76EFD0EDBCF5C
:101F7000E9FFFE0EDBCFEAFFE750E926000EEA227A
:101F8000EF50E66E70DFE55200016E2BDFD7E552B1
:101F9000E7CFD9FF1200D9CFE6FFE1CFD9FF00018B
:101FA0006E6B6E51E76EFD0EDBCFE9FFFE0EDBCFF1
:101FB000EAFFE750E926000EEA22EF5013E06E51E7
:101FC000E76EFD0EDBCFE9FFFE0EDBCFEAFFE75049
:101FD000E926000EEA22EF50E66E54DFE5520001DA
:101FE0006E2BDFD7E552E7CFD9FF1200D9CFE6FF3E
:101FF000E1CFD9FFE150FD0FE96EFF0EDA20EA6E66
:102000000F0ED880EE54270EED542AE2FD0EDBCFE2
:1020100033F0FE0EDBCF34F0100E2A6E270E2B6E3F
:1020200033C025F034C026F07BEC15F025C033F02A
:1020300026C034F00A0E2A6E2B6A7BEC15F021C004
:1020400033F022C034F000016C5100012124316EC4
:10205000000E2220326E300E3124E66E04DFE5528F
:10206000D950FD0FE96EFF0EDA20EA6EE70ED88038
:10207000EE54030EED5422E2FD0EDBCF31F0FE0EE6
:10208000DBCF32F0E80E2A6E030E2B6E31C025F046
:1020900032C026F07BEC15F025C031F026C032F0BE
:1020A0000A0E2A6E2B6A7BEC15F021C031F022C09B
:1020B00032F0300E2124E66ED6DEE552D950FD0F07
:1020C000E96EFF0EDA20EA6E630ED880EE54000E41
:1020D000ED5429E2FD0EDBCF33F0FE0EDBCF34F002
:1020E000640E2A6E2B6A33C025F034C026F07BECD8
:1020F00015F025C033F026C034F00A0E2A6E2B6A84
:102100007BEC15F021C033F022C034F000016C519B
:1021100000012124316E000E2220326E300E312457
:10212000E66EA1DEE552D950FD0FE96EFF0EDA2012
:10213000EA6E090ED880EE54000EED5429E2FD0E31
:10214000DBCF33F0FE0EDBCF34F00A0E2A6E2B6AA3
:1021500033C025F034C026F07BEC15F025C033F0F9
:1021600026C034F00A0E2A6E2B6A7BEC15F021C0D3
:1021700033F022C034F000016C5100012124316E93
:10218000000E2220326E300E3124E66E6CDEE552F7
:10219000FD0EDBCF33F0FE0EDBCF34F00A0E2A6EDD
:1021A0002B6A33C025F034C026F07BEC15F021C03B
:1021B00033F022C034F000016C5100012124316E53
:1021C000000E2220326E300E3124E66E4CDEE552D7
:1021D000E552E7CFD9FF1200D9CFE6FFE1CFD9FF13
:1021E000020EE1260C0E00016C25BD12070E6C25B7
:1021F000CA6EFD0EA96EA680A850FEE1FD0E00017C
:102200006C25E82494166CC035F0366A376A386A53
:10221000100E256E266AFD0EDBCF2AF0FE0EDBCFF8
:102220002BF0BDEC14F023C03DF024C03EF03F6A1B
:10223000406A3EAE02D03F684068396A1B0E3A6E73
:10224000B70E3B6E3C6A39C023F03AC024F0256ECD
:102250003CC026F03DC028F03EC029F03FC02AF027
:1022600040C02BF089EC14F035502324316E3650E9
:102270002420326E37502520385026203106000E9B
:10228000325A3150CB6ECB28336E346A256E34C04F
:1022900026F0FB0EDBCF2AF0FC0EDBCF2BF0BDECE3
:1022A00014F023C031F024C032F0190E2A6E2B6ACC
:1022B00023C025F024C026F063EC14F025C0DEFF17
:1022C00026C0DDFF00016C51336E346ADE503324CA
:1022D000316EDD503420326ED89032323132D890A7
:1022E000323231323150BE6EDECF33F0DDCF34F0DA
:1022F000030E3316000E34166C5100013324316E78
:10230000000E3420040ED8903136E804FCE1315040
:10231000BD12020EE15C02E2E16AE552E16EE552B5
:10232000E7CFD9FF1200D9CFE6FFE1CFD9FF020EE8
:10233000E1260C0E00016C25BA12070E6C25CA6E40
:10234000FD0EA96EA680A850FEE1FE0E00016C25D0
:10235000E82494166CC035F0366A376A386A100E75
:10236000256E266AFD0EDBCF2AF0FE0EDBCF2BF0AA
:10237000BDEC14F023C03DF024C03EF03F6A406A3B
:102380003EAE02D03F684068396A1B0E3A6EB70E07
:102390003B6E3C6A39C023F03AC024F0256E3CC045
:1023A00026F03DC028F03EC029F03FC02AF040C0D2
:1023B0002BF089EC14F035502324316E3650242054
:1023C000326E37502520385026203106000E325A02
:1023D0003150CB6ECB28336E346A256E34C026F074
:1023E000FB0EDBCF2AF0FC0EDBCF2BF0BDEC14F0A4
:1023F00023C031F024C032F0190E2A6E2B6A23C09C
:1024000025F024C026F063EC14F025C0DEFF26C0C2
:10241000DDFF00016C51336E346ADE503324316EBF
:10242000DD503420326ED89032323132D890323290
:1024300031323150BB6EDECF31F0DDCF32F0030EE2
:102440003116000E3216040ED8903136E804FCE145
:102450003150BA12020EE15C02E2E16AE552E16E2D
:10246000E552E7CFD9FF1200DACFE4FFE2CFDAFF7F
:10247000E9CFE4FFEACFE4FFF6CFE4FFF7CFE4FFD4
:10248000F5CFE4FFF3CFE4FFF4CFE4FFFACFE4FFAE
:1024900000EE1DF0140EE80403E3EECFE4FFFBD7DB
:1024A00000EE31F0100EE80403E3EECFE4FFFBD7BB
:1024B000E6529EA007D09E90D80ECF6EF00ECE6E44
:1024C000F9EC13F0E55200EE40F0100EE80403E3DF
:1024D000E5CFEDFFFBD700EE30F0140EE80403E388
:1024E000E5CFEDFFFBD7E5CFFAFFE5CFF4FFE5CF72
:1024F000F3FFE5CFF5FFE5CFF7FFE5CFF6FFE5CF3B
:10250000EAFFE5CFE9FFE5CFDAFF11008A6A936AB7
:10251000800ECD6ED80ECF6EF00ECE6EF26AF28CBB
:102520009E909D80CD8012000F0EE66E7C0EE66EB2
:1025300042EC0AF0E552E552E80EE66E030EE66E56
:102540008BEC13F0E552E5525DEC13F00000ECD794
:102550001200C80EE66EE66A8BEC13F0E552E55207
:102560005DEC13F000008A7CF4D712002C0EE66EAE
:10257000010EE66E8BEC13F0E552E5525DEC13F0C4
:1025800000008A7AF3D7120093EC0EF0BFDFE7EC7D
:1025900013F0280EE66E250EE66E010EE66E0FECC9
:1025A00014F0E552E552E552520EE66E250EE66E47
:1025B000020EE66E0FEC14F0E552E552E5526C0E99
:1025C000E66E250EE66E030EE66E0FEC14F0E55295
:1025D000E552E552F28ED0BEF28C41984186080E4B
:1025E000046E02C044F003C045F0170E445C000EB8
:1025F000455805E3050E446E000E456E04D0060EE8
:102600004426000E452283EC13F0EF50400B2AE0E5
:10261000EF50800B27E1EF50070B426ED880045437
:1026200021E2EFB60DD04CEC13F04350E15C04E036
:102630004350E16EE750D96E41A6CFD783EC13F03B
:10264000EF50100B03E0EF50200B0CE0EFA60AD088
:10265000418844C000F045C001F0EF50070B046E04
:10266000E85006E002504418C0E103504518BDE1AF
:1026700041A8B3D7419600C044F001C045F000C066
:1026800002F001C003F083EC13F0EF50400BA5E023
:08269000EF50800BA2E1C7D757
:08269800030E39D8EF5004E0F5
:1026A000D950E76EE128D96EE150436EED50E12636
:1026B000ED50FA6EED50F96E1200030E28D843501B
:1026C000E15CED6EFE50ED6EFD50ED6EEF860600A6
:1026D000120006001200426A73EF13F01200426803
:1026E00073EF13F012004190030E11D84350E15CD8
:1026F000ED6EFE50ED6EFD50ED6EEF96EFA8EF9A89
:1027000042B0EF8A1200000E87EF13F0120044244B
:10271000E96EEA6A1200D9CFE6FFE1CFD9FFE652AF
:10272000DF6AD950FD0FE96EFF0EDA20EA6EEE5037
:10273000ED1002E0010EDF6EE6DFEF9AEF98DFA00A
:102740001ED0D950FD0FE96EFF0EDA20EA6EEE1EA4
:10275000ED1EFD0EDB2AFE0E01E3DB2A44C0E9FF7D
:1027600045C0EAFF040EE926000EEA22FD0EDBCF8B
:10277000EEFFFE0EDBCFEDFFC6DFEF88EF86E55202
:10278000E552E7CFD9FF1200F250C00BF29ED0BE47
:10279000F29C1200E8BEF28ED0BEE8AC01D0F28C02
:1027A0001200419AB0DF425006E0EFA602D0EF9847
:1027B0000DD0EF8601D0EF96EF50100B06E1EF50F1
:1027C000200B03E0EF86418A01D006001200416A27
:1027D000170E026E000E036E059C0B9C119C179C3D
:1027E000FD0EA96EA694A69EA69CA680A850FEE10A
:1027F0001200000105B9093F02D00A4B05990BB937
:102800000F3F02D0104B0B9911B9153F02D0164B58
:10281000119917B91B3F02D01C4B17991200D9CF41
:10282000E6FFE1CFD9FF020EE1264192050EDE6EF2
:10283000000EDD6E426ADECFE9FFDDCFEAFFEF502A
:10284000400B2AE1FE0EDB8CDB86DECFE9FFDDCF1D
:10285000EAFFEE52FC0EDBCFEEFFFD0EDBCFEDFF0D
:10286000DECFE9FFDDCFEAFF040EE926000EEA2203
:10287000EE6AED6ADECFE9FFDDCFEAFF030EE9265F
:10288000000EEA22EF6ADECFE9FFDDCFEAFFFE0E9F
:10289000DBCFEFFF41920DD0D9CFE9FFDACFEAFFCE
:1028A000060EEE26000EEF22422A040E425CC3E31F
:1028B0004182020EE15C02E2E16AE552E16EE5521C
:0628C000E7CFD9FF120072
:0A28C6001D6A2BAE6CEF14F02A6CB3
:1028D0002B1EE86A2B221D1E26AE74EF14F0256C09
:1028E000261EE86A26221D1E7BEC15F026BE84EF0C
:1028F00014F01DAE000C256C261EE86A2622216C01
:10290000221EE86A2222000C1DBE7BEF14F01E88F6
:10291000FF0C1D6AE86A2BAE96EF14F0286C291E96
:102920002A1E2B1E29222A222B221D1E26AEA1EF93
:1029300014F0236C241E251E261E24222522262266
:102940001D1E57EC15F026BEB8EF14F01DAE000C9E
:10295000236C241E251E261EE86A242225222622F8
:102960001F6C201E211E221E202221222222000C4A
:102970001DBEA8EF14F01E88FF0C26C030F025C045
:102980002FF025502A02F4CF24F0F3CF23F0265065
:102990002B02F4CF26F0F3CF25F02A02F3502426A1
:1029A000F4502522E86A26222F502B02F3502426C9
:1029B000F4502522E86A26222BAEE3EF14F02F50C4
:1029C000255E3050265A30AE000C2A50255E2B5022
:1029D000265A000C25C02FF025502A02F4CF24F0EF
:1029E000F3CF23F026502B02F4CF26F0F3CF25F0BF
:1029F0002A02F3502426F4502522E86A26222F507A
:102A00002B02F3502426F4502522E86A2622000CDB
:102A10002A0EF66E100EF76E000EF86E0001090019
:102A2000F550656F0900F550666F03E1656701D0E9
:102A30003DD00900F550606F0900F550616F090045
:102A4000F550626F09000900F550E96E0900F55074
:102A5000EA6E090009000900F550636F0900F5509E
:102A6000646F09000900F6CF67F0F7CF68F0F8CF80
:102A700069F060C0F6FF61C0F7FF62C0F8FF0001B7
:102A8000635302E1645307E00900F550EE6E6307FB
:102A9000F8E26407F9D767C0F6FF68C0F7FF69C0BE
:0E2AA000F8FF00016507000E665BBFD712004D
:022AAE00226A9A
:102AB000216A206A1F6A200EE76ED89023362436DA
:102AC000253626361F3620362136223628501F5C02
:102AD000295020582A5021582B50225809E32850B9
:102AE0001F5E2950205A2A50215A2B50225A232A3D
:062AF000E72EE4D71200FE
:0A2AF600226A216A100EE76ED890E4
:102B000025362636213622362A50215C2B50225873
:102B100005E32A50215E2B50225A252AE72EF0D7B2
:022B20001200A1
:0E2B2200FF0EE350466E480E01D04C0EE76EDB
:102B3000E72EFED7E76AE72EFED7462EF7D700002E
:022B4000120081
:0E2B4200000EF36E00EE00F0080E01D8120037
:102B5000EA6002D0EE6AFCD7F350E9601200EE6A38
:022B6000FCD7A0
:0E2B620013EE00F023EE00F0F86A1E9C08EC63
:0E2B700015F0CDEC15F0C4EC12F0FBD71200FE
:022B7E00226AC9
:102B8000080EE76ED890263622362B50225C02E3E0
:0A2B9000226E262AE72EF7D7120066
:022B9A00120027
:042B9C00DF0F0FDF59
:012BA0000034
:00000001FF
